:020000040800F2
:1080000000800020F120010885A1000887A1000858
:1080100089A100088BA100088DA1000800000000C4
:10802000000000000000000000000000E101010865
:108030008FA10008000000008102010829FF00084C
:108040004121010841210108412101084121010884
:1080500041210108412101084121010891A10008A5
:108060004121010841210108412101089DA1000889
:10807000ADA1000841210108412101084121010869
:1080800041210108000000004121010841210108AF
:10809000BDA10008CDA1000841210108412101082E
:1080A0004121010841210108412101084121010824
:1080B000DDA10008412101084121010841210108F9
:1080C0004121010841210108412101084121010804
:1080D00041210108412101084121010841210108F4
:1080E00041210108412101084121010841210108E4
:1080F000412101084121010841210108000000003F
:108100000000000041210108000000004121010899
:108110004121010800000000EDA1000841210108F3
:1081200041210108412101084121010841210108A3
:108130004121010800000000000000004121010869
:108140004121010841210108000000000000000059
:10815000000000000000000000000000000000001F
:1081600000000000000000000000000041210108A4
:108170004121010800000000000000000000000094
:108180000000000041210108000000000000000084
:1081900000000000000000000000000000000000DF
:1081A00000000000000000004121010841210108F9
:1081B000412101084121010841210108000000007E
:1081C0000000000041210108000000000000000044
:0881D0004121010841210108D1
:1081E00001F0FF01102A2BDB10F0070F08D010F868
:1081F000013B013A8B422DD010F0070F42B3F6D16C
:10820000F0B441EA012141EA014122F007047FF084
:1082100000070023F0E80256083C85EA010586EADB
:10822000010685FA47F5A3FA87F586FA47F6A5FA17
:1082300087F68EB9EED1F0BC01F0FF0102F0070223
:1082400032B110F8013B013A83EA010313B1F8D1CE
:108250000020704701387047002D06BF35460338AF
:10826000073815F0010F07D1013015F4807F02BFE8
:10827000013015F4C03F0130F0BC0138704700BF39
:1082800081F0004102E000BF83F0004330B54FEAC7
:1082900041044FEA430594EA050F08BF90EA020F34
:1082A0001FBF54EA000C55EA020C7FEA645C7FEAC7
:1082B000655C00F0E2804FEA5454D4EB5555B8BFEA
:1082C0006D420CDD2C4480EA020281EA030382EA5B
:1082D000000083EA010180EA020281EA0303362DED
:1082E00088BF30BD11F0004F4FEA01314FF4801CC0
:1082F0004CEA113102D0404261EB410113F0004FD2
:108300004FEA03334CEA133302D0524263EB430388
:1083100094EA050F00F0A780A4F10104D5F1200E26
:108320000DDB02FA0EFC22FA05F2801841F1000181
:1083300003FA0EF2801843FA05F359410EE0A5F155
:1083400020050EF1200E012A03FA0EFC28BF4CF086
:10835000020C43FA05F3C01851EBE37101F000453C
:1083600007D54FF0000EDCF1000C7EEB00006EEB49
:108370000101B1F5801F1BD3B1F5001F0CD34908D3
:108380005FEA30004FEA3C0C04F101044FEA44522A
:1083900012F5800F80F09A80BCF1004F08BF5FEAB1
:1083A000500C50F1000041EB045141EA050130BD91
:1083B0005FEA4C0C404141EB0101013C28BFB1F5A3
:1083C000801FE9D291F0000F04BF01460020B1FAEE
:1083D00081F308BF2033A3F10B03B3F120020CDAC1
:1083E0000C3208DD02F1140CC2F10C0201FA0CF09F
:1083F00021FA02F10CE002F11402D8BFC2F1200C04
:1084000001FA02F120FA0CFCDCBF41EA0C019040B9
:10841000E41AA2BF01EB0451294330BD6FEA040402
:108420001F3C1CDA0C340EDC04F11404C4F12002ED
:1084300020FA04F001FA02F340EA030021FA04F3FF
:1084400045EA030130BDC4F10C04C4F1200220FA56
:1084500002F001FA04F340EA0300294630BD21FA94
:1084600004F0294630BD94F0000F83F4801306BF5A
:1084700081F480110134013D4EE77FEA645C18BF4E
:108480007FEA655C29D094EA050F08BF90EA020FE5
:1084900005D054EA000C04BF1946104630BD91EADD
:1084A000030F1EBF0021002030BD5FEA545C05D1E0
:1084B0004000494128BF41F0004130BD14F580041F
:1084C0003CBF01F5801130BD01F0004545F0FE4193
:1084D00041F470014FF0000030BD7FEA645C1ABFC8
:1084E000194610467FEA655C1CBF0B46024650EAFF
:1084F000013406BF52EA033591EA030F41F400212B
:1085000030BD00BF90F0000F04BF0021704730B5B0
:108510004FF4806404F132044FF000054FF0000185
:1085200050E700BF90F0000F04BF0021704730B546
:108530004FF4806404F1320410F0004548BF40421B
:108540004FF000013EE700BF42004FEAE2014FEA70
:1085500031014FEA02701FBF12F07F4393F07F4F4B
:1085600081F06051704732F07F4208BF704793F04E
:108570007F4F04BF41F40021704730B54FF4607461
:1085800001F0004521F000411CE700BF50EA010264
:1085900008BF704730B54FF000050AE050EA01020D
:1085A00008BF704730B511F0004502D5404261EB7D
:1085B00041014FF4806404F132045FEA915C3FF4BE
:1085C000D8AE4FF003025FEADC0C18BF03325FEA5B
:1085D000DC0C18BF033202EBDC02C2F1200300FA0C
:1085E00003FC20FA02F001FA03FE40EA0E0021FA31
:1085F00002F11444BDE600BF70B54FF0FF0C4CF41F
:10860000E06C1CEA11541DBF1CEA135594EA0C0FD0
:1086100095EA0C0F00F0DEF82C4481EA030621EA0B
:108620004C5123EA4C5350EA013518BF52EA033546
:1086300041F4801143F4801338D0A0FB02CE4FF0F8
:108640000005E1FB02E506F00042E0FB03E54FF028
:108650000006E1FB03569CF0000F18BF4EF0010E20
:10866000A4F1FF04B6F5007F64F5407404D25FEA1C
:108670004E0E6D4146EB060642EAC62141EA5551CF
:108680004FEAC52040EA5E504FEACE2EB4F1FD0C11
:1086900088BFBCF5E06F1ED8BEF1004F08BF5FEA8F
:1086A000500E50F1000041EB045170BD06F0004641
:1086B00046EA010140EA020081EA0301B4EB5C04EE
:1086C000C2BFD4EB0C0541EA045170BD41F48011E6
:1086D0004FF0000E013C00F3AB8014F1360FDEBF0B
:1086E000002001F0004170BDC4F10004203C35DAE7
:1086F0000C341BDC04F11404C4F1200500FA05F36A
:1087000020FA04F001FA05F240EA020001F000420A
:1087100021F0004110EBD37021FA04F642EB060180
:108720005EEA430E08BF20EAD37070BDC4F10C04AA
:10873000C4F1200500FA04F320FA05F001FA04F26E
:1087400040EA020001F0004110EBD37041F100015A
:108750005EEA430E08BF20EAD37070BDC4F1200565
:1087600000FA05F24EEA020E20FA04F301FA05F2CD
:1087700043EA020321FA04F001F0004121FA04F275
:1087800020EA020000EBD3705EEA430E08BF20EA45
:10879000D37070BD94F0000F0FD101F0004640007F
:1087A00041EB010111F4801F08BF013CF7D041EA01
:1087B000060195F0000F18BF704703F00046520005
:1087C00043EB030313F4801F08BF013DF7D043EAD6
:1087D0000603704794EA0C0F0CEA135518BF95EA8C
:1087E0000C0F0CD050EA410618BF52EA4306D1D113
:1087F00081EA030101F000414FF0000070BD50EA32
:10880000410606BF1046194652EA430619D094EABB
:108810000C0F02D150EA013613D195EA0C0F05D1A5
:1088200052EA03361CBF104619460AD181EA0301F9
:1088300001F0004141F0FE4141F470014FF00000B1
:1088400070BD41F0FE4141F4780170BD70B54FF04C
:10885000FF0C4CF4E06C1CEA11541DBF1CEA1355CC
:1088600094EA0C0F95EA0C0F00F0A7F8A4EB0504AE
:1088700081EA030E52EA03354FEA013100F08880A5
:108880004FEA03334FF0805545EA131343EA12636E
:108890004FEA022245EA111545EA10654FEA002623
:1088A0000EF000419D4208BF964244F1FD0404F5DC
:1088B000407402D25B084FEA3202B61A65EB030538
:1088C0005B084FEA32024FF480104FF4002CB6EBF5
:1088D000020E75EB030E22BFB61A754640EA0C0075
:1088E0005B084FEA3202B6EB020E75EB030E22BFB5
:1088F000B61A754640EA5C005B084FEA3202B6EBF6
:10890000020E75EB030E22BFB61A754640EA9C00B4
:108910005B084FEA3202B6EB020E75EB030E22BF84
:10892000B61A754640EADC0055EA060E18D04FEA42
:10893000051545EA16754FEA06164FEAC30343EAE2
:1089400052734FEAC2025FEA1C1CC0D111F4801FAF
:108950000BD141EA00014FF000004FF0004CB6E7A8
:1089600011F4801F04BF01430020B4F1FD0C88BF47
:10897000BCF5E06F3FF6AFAEB5EB030C04BFB6EB52
:10898000020C5FEA500C50F1000041EB045170BD45
:108990000EF0004E4EEA113114EB5C04C2BFD4EB72
:1089A0000C0541EA045170BD41F480114FF0000EF6
:1089B000013C90E645EA060E8DE60CEA135594EA72
:1089C0000C0F08BF95EA0C0F3FF43BAF94EA0C0F75
:1089D0000AD150EA01347FF434AF95EA0C0F7FF4EA
:1089E00025AF104619462CE795EA0C0F06D152EA3E
:1089F00003353FF4FDAE1046194622E750EA410622
:108A000018BF52EA43067FF4C5AE50EA41047FF432
:108A10000DAF52EA43057FF4EBAE12E74FF0FF3C97
:108A200006E000BF4FF0010C02E000BF4FF0010C68
:108A30004DF804CD4FEA410C7FEA6C5C4FEA430CE1
:108A400018BF7FEA6C5C1BD001B050EA410C0CBF30
:108A500052EA430C91EA030F02BF90EA020F002092
:108A6000704710F1000F91EA030F58BF994208BFF9
:108A700090422CBFD8176FEAE37040F001007047B6
:108A80004FEA410C7FEA6C5C02D150EA013C07D10D
:108A90004FEA430C7FEA6C5CD6D152EA033CD3D058
:108AA0005DF8040B704700BF8446104662468C4652
:108AB0001946634600E000BF01B5FFF7B7FF002885
:108AC00048BF10F1000F01BD4DF808EDFFF7F4FFAE
:108AD0000CBF012000205DF808FB00BF4DF808ED39
:108AE000FFF7EAFF34BF012000205DF808FB00BF5C
:108AF0004DF808EDFFF7E0FF94BF012000205DF87E
:108B000008FB00BF4DF808EDFFF7CEFF94BF012032
:108B100000205DF808FB00BF4DF808EDFFF7C4FF2B
:108B200034BF012000205DF808FB00BF4FEA410C74
:108B30007FEA6C5C02D150EA013C0AD14FEA430C57
:108B40007FEA6C5C02D152EA033C02D14FF0000094
:108B500070474FF0010070474FEA410212F50012D2
:108B600015D211D56FF47873B3EB625212D94FEA74
:108B7000C12343F0004343EA505311F0004F23FA5E
:108B800002F018BF404270474FF00000704750EAB3
:108B9000013005D111F0004008BF6FF00040704770
:108BA0004FF00000704700BF4FEA4102B2F1E043CE
:108BB00024BFB3F5001CDCF1FE5C0DD901F0004CC4
:108BC0004FEAC0024CEA5070B2F1004F40EB830014
:108BD00008BF20F00100704711F0804F21D113F140
:108BE0003872BCBF01F00040704741F480114FEA79
:108BF0005252C2F11802C2F1200C10FA0CF320FA02
:108C000002F018BF40F001004FEAC1234FEAD3231E
:108C100003FA0CFC40EA0C0023FA02F34FEA430388
:108C2000CCE77FEA625307D150EA01331EBF4FF011
:108C3000FE4040F44000704701F0004040F0FE402C
:108C400040F40000704700BF10B5054C237833B9DD
:108C5000044B13B10448AFF300800123237010BD0F
:108C6000DC010020000000008C42010808B5034B25
:108C70001BB103490348AFF3008008BD00000000AA
:108C8000E00100208C42010808B52DED028B00F0B8
:108C900053FA9FED098AB0EE480A00F061FAB0EE8F
:108CA000480A00F06BFAB0EE480A00F075FA00F0DE
:108CB000B7F8BDEC028B08BD00000000000000000A
:108CC00008B5394A136801331360384A12782AB15B
:108CD000012A2AD00A2007F0BFF908BD07EE903A12
:108CE000F8EEE77AB3EE0E7AC7EE877A17EE900ABF
:108CF000FFF72AFC41EC100B09F09AFF51EC100B26
:108D000027A3D3E90023FFF777FC25A3D3E90023AA
:108D1000FFF7BCFAFFF748FF01EE100AF7EE000A72
:108D20009FED230A00F048FAD4E7224A1278A2B94C
:108D3000214A1278062A22D0082ACBD107EE903A8F
:108D4000F8EEE77AB6EE001ADFED1C0AB1EE040A7F
:108D500087EE800A00F030FABCE707EE903AF8EEB2
:108D6000E77AB7EE001ADFED150AB1EE040A87EED6
:108D7000800A00F021FA0F4B00221A70AAE707EED2
:108D8000903AF8EEE77AB6EE001ADFED0C0AB1EE93
:108D9000040A87EE800A00F00FFA9BE7AFF3008029
:108DA000000000A09999C93FF8010020FC010020B3
:108DB0000000164304020020020000206666663FA1
:108DC00038B504460D460B4802F092FA08B9002067
:108DD00038BD2A462146074802F0D5F938B90120A6
:108DE000054B1870054A136803441360F0E700F060
:108DF00084FBF4E77004002004020020000200203D
:108E0000054B10225A610F22DA6102221A62034BCB
:108E100006221A70704700BF700400200200002074
:108E200000B587B01C4A1D4B1B881360002353609C
:108E300093604FF40021D1605361D361136193615A
:108E400000930122019202930392049305926946D2
:108E5000134802F009F990B9FFF7D2FF104802F069
:108E600019F878B90E4802F032F970B900220121E0
:108E70000B4802F043FA58B907B05DF804FB00F064
:108E80003CFBE9E700F039FBECE700F036FBEDE7EF
:108E900000F033FBF0E700BF40020020000000209C
:108EA00070040020044B08225A610F21D96102216D
:108EB0001962024B1A7070477004002002000020F3
:108EC00030B587B005460378422B28D02B784F2B3E
:108ED0002ED02B78432B3DD02B78532B4CD02B7896
:108EE000742B02D0542B40F08580742B60D00B2261
:108EF000691C03A809F0CEF93F4B4FF080425A603D
:108F00006B7A303B0293029B1B043B4CE3601022C4
:108F1000002103A809F0B4F92060002463E043783D
:108F2000542BD3D183784C2BD0D101F033FECDE735
:108F3000324802F03CFB01285CD1304802F0C7F80F
:108F400028B901232E4A13702E4A1370C1E700F08E
:108F5000D4FAF6E7294802F02AFB02284AD127482A
:108F600002F0CCF828B90023254A1370254A137063
:108F7000B2E700F0C2FAF6E76B78303B01931F4886
:108F800002F015FB012835D1019B062B0AD0019B6D
:108F9000082B0AD0194801F07DFF00289FD000F06F
:108FA000ACFA9CE7FFF72CFFF4E7FFF77BFFF1E754
:108FB0000322691C03A809F06DF90F4B00225A60C7
:108FC0002B79303B02939EE7610005310222294450
:108FD000684609F05FF910220021684609F050F94F
:108FE000094B18550134029BA342EDDC06490248A7
:108FF000FFF7E6FE07B030BD4002002070040020FD
:10900000FC010020050200201002002084B070B591
:1090100088B00CAC84E80F00169EC9B9B2F1005FAD
:1090200004D032B974238DF8003002E072238DF839
:1090300000300C9A1F490DF1010009F083F8BDF8CA
:109040003E5005F13003DBB28DF8043000241DE002
:10905000B1F1804FF3D10E9BB3F1005F04D033B96F
:1090600054238DF8003002E052238DF800300C9A22
:1090700011490DF1010009F065F8E0E760000530E5
:10908000325D0E49684409F05DF80134AC42F5D315
:109090006B0025336B440D2203F8202CE91C49009A
:1090A00089B2684608F008FE08B0BDE8704004B018
:1090B000704700BFA8420108B0420108B842010849
:1090C00011F0010F00D1704730B589B00446164B3E
:1090D000164A402102F080F850B9154B1B7853B95D
:1090E00000220121204602F009F9D0B909B030BDB3
:1090F00000F003FAF1E70F4B01221A700B4D0A4BF7
:109100000693EC4605F1100EBEE80F00ACE80F0028
:109110009EE803008CE8030095E80F00FFF776FF58
:10912000DEE700F0EAF9E1E708020020180200207B
:10913000050200200402002010B50421064804F0B6
:1091400083FF064C0021204604F07EFF04212046C8
:1091500004F07AFF10BD00BF54030020700200200D
:10916000DFED047A20EE270ABCEEC00A024B83ED45
:109170000D0A70470000484300400140DFED047ACB
:1091800020EE270ABCEEC00A024B83ED0E0A7047A0
:1091900000008C4200400140DFED047A20EE270AF7
:1091A000BCEEC00A024B83ED0E0A704700008C42F1
:1091B000000400400000000038B52DED068B10EED5
:1091C000100AB5EEC01AF1EE10FA00F1928061EECD
:1091D000018A28EEA0AAFFF7B7F99FED671B41ECC3
:1091E000100B09F0EFFC51EC100B0022664BFFF75F
:1091F0002DFBFFF7D9FC08EE100AFFF7A5F99FED4C
:10920000601B41EC100B09F0DDFC51EC100B00224F
:109210005E4BFFF739F8024621F0004300205B491E
:10922000FFF732F804460D461AEE100AFFF78CF9E4
:1092300022462B46FFF7E0F9FFF7B6FC09EE100ACD
:10924000B5EEC08AF1EE10FA06DBF7EE007AB4EE66
:10925000E78AF1EE10FA4FD4F7EE007AB4EEE78A1F
:10926000F1EE10FA06DBF0EE007AB4EEE78AF1EEEA
:1092700010FA56D4F0EE007AB4EEE78AF1EE10FA66
:1092800006DBF0EE087AB4EEE78AF1EE10FA4FD47E
:10929000F0EE087AB4EEE78AF1EE10FA06DBF1EEB2
:1092A000007AB4EEE78AF1EE10FA48D4F1EE007AD3
:1092B000B4EEE78AF1EE10FA06DBF1EE047AB4EED2
:1092C000E78AF1EE10FA3FD4F1EE047AB4EEE78AC1
:1092D000F1EE10FA3FDBF1EE087AB4EEE78AF1EE38
:1092E00010FA3FD4DFED2A9AB0EE699AB0EE690A1F
:1092F00006E09FED271A6AE7B0EE4A0ADFED249AEE
:1093000078EECA8A30EE280AFFF72AFF39EE280ADB
:10931000FFF734FF39EEA80AFFF73EFFBDEC068BDE
:1093200038BDB0EE490AB0EE4A9ADFED199AE7E788
:10933000F0EE499AB0EE4A9A9FED150AE0E7F0EE9A
:109340004A9A9FED130ADBE7F0EE4A9AB0EE490A1B
:109350009FED0F9AD4E7DFED0E9AB0EE699AB0EE6A
:10936000690ACDE7F0EE499AB0EE4A0A9FED089AF5
:10937000C6E700BFAFF30080000000000080764029
:10938000000000000000004000004E400000F03FE0
:1093900000000000F0B589B0002403940494059403
:1093A00006940794314BDA6C42F00402DA64DA6C0A
:1093B00002F004020092009ADA6C42F00102DA64D0
:1093C000DA6C02F001020192019ADA6C42F00202B8
:1093D000DA64DB6C03F002030293029B244D224605
:1093E0004CF20101284602F0CFF9224E22464021DC
:1093F000304602F0C9F94FF4604303930494059496
:1094000003A9304602F0D6F84CF20103039301277A
:1094100004970594069403A9284602F0CBF802238A
:1094200003934FF488130493059403A9284602F08C
:10943000C1F842F2040303930494059403A9284657
:1094400002F0B8F84023039304970594069403A907
:10945000304602F0AFF822460421072001F086FBD7
:10946000072001F093FB09B0F0BD00BF00100240DF
:10947000000400480008004800B583B0124B9A6C05
:1094800042F004029A649A6C02F004020092009A7C
:109490009A6C42F001029A649B6C03F00103019301
:1094A000019B002205210B2001F060FB0B2001F045
:1094B0006DFB002205210C2001F058FB0C2001F06F
:1094C00065FB03B05DF804FB0010024008B5012005
:1094D00006F0C2FDFBE708B5012006F0BDFDFBE785
:1094E00008B5FFF7EDFBFCE708B50368B3F1804F63
:1094F00000D008BD00F0A0FEFBE772B6FEE700005A
:1095000008B50F480F4B0360002343608360C360BE
:1095100003740122427483741021416182610F211E
:10952000C1610221016242628262C26202634363DC
:109530008363C36301F0AEFC00B908BDFFF7DDFF34
:10954000700400200064004010B58CB00024099421
:109550000A940B942022214601A808F0AEFE25486B
:109560004FF0A04303604FF4201343608460C46055
:10957000046101234361042282610477437702225C
:10958000026280F82440C462046380F83830C46307
:1095900080F8404000F090FE20BB0023099309A909
:1095A000144801F0DBF9F8B9134B01930623029339
:1095B000002303937F2204920422059206930DEB6D
:1095C00002010C4800F098FF80B90C4B01930C236A
:1095D00002930623039301A9064800F08DFF38B9D2
:1095E0000CB010BDFFF789FFFFF787FFFFF785FF7E
:1095F000FFF783FF2806002002003004000021C38B
:1096000000B589B020220021684608F056FE2648A1
:10961000264B03604FF42013436000238360C36034
:1096200003610122426108218161037742770321AE
:10963000016280F82430C362036380F83820C3637A
:1096400080F8403000F038FE28BB194B0093062309
:109650000193012302937F230393042304930023A4
:1096600005936946104800F047FFB0B9114B0093CD
:109670000C23019369460C4800F03EFF78B90E4B6D
:109680000093122301936946074800F035FF40B963
:1096900009B05DF804FBFFF730FFFFF72EFFFFF77F
:1096A0002CFFFFF72AFF00BFBC050020000100507F
:1096B0000800900C1000C0102000F01410B59CB0F1
:1096C0000024189419941A941B94159416941794C2
:1096D0000E940F94109411941294139414943422B1
:1096E000214601A808F0E9FD3648374B03602F23D7
:1096F000436084606423C36004614461846104F056
:10970000A7FA00284ED14FF48053189318A92D487A
:1097100004F0EEFB002847D12A4804F0C9FA0028DB
:1097200044D1002315931693179315A9254804F0E7
:109730003BFD00283CD160230E9300220F92109233
:1097400011921292139214920EA91E4804F026FB55
:1097500000282FD104220EA91A4804F01FFB58BB81
:1097600008220EA9174804F019FB38BB0023019307
:1097700002930393049305934FF4005206920793C8
:10978000089309934FF000720A920B930C930D9378
:1097900001A90C4804F052FD90B90A4800F04AFCB7
:1097A0001CB010BDFFF7A9FEFFF7A7FEFFF7A5FE4F
:1097B000FFF7A3FEFFF7A1FEFFF79FFEFFF79DFE59
:1097C000FFF79BFEA0030020002C014008B51148C4
:1097D000114B0360114B4360002383600122C26080
:1097E000036143618361C361036201F0E1FF50B92A
:1097F0000021084802F03AF838B90021054802F083
:1098000063F820B908BDFFF778FEFFF776FEFFF793
:1098100074FE00BF2404002000540040FFD9B02093
:1098200000B58BB00023079308930993009301932D
:10983000029303930493059306931748174A026013
:109840005F2242608360C722C2600361836104F0CB
:109850002FFAD0B900230793099307A90E4804F003
:10986000A3FCA0B96023009300230193022202927B
:10987000049304226946084804F090FA48B906485F
:1098800000F0D8FB0BB05DF804FBFFF736FEFFF7E6
:1098900034FEFFF732FE00BF5403002000040040F6
:1098A00010B598B000241594169417940E940F9444
:1098B000109411941294139414943422214601A804
:1098C00008F0FBFC2648274B03605F23436084605D
:1098D000C723C36004614461846104F0E9F900288E
:1098E00034D100231593179315A91D4804F05CFC8F
:1098F00000282DD160230E9300220F920223109393
:10990000119212924FF48073139314920EA914487B
:1099100004F044FAF0B904220EA9114804F03EFA0A
:10992000D0B90023019302930393049305934FF45A
:109930000052069207930D9301A9094804F07EFC9A
:1099400060B9074800F076FB18B010BDFFF7D5FDF1
:10995000FFF7D3FDFFF7D1FDFFF7CFFDFFF7CDFDFB
:10996000700200200040014000B585B00023019343
:10997000029303930D480E4A02608F224260836077
:109980006322C260836104F063F950B9002301933C
:10999000039301A9054804F007FC20B905B05DF860
:1099A00004FBFFF7AAFDFFF7A8FD00BF0803002096
:1099B0000010004008B50C480C4B036001234360C5
:1099C00000238360C36003614FF6FF72426103624C
:1099D00043624FF400028262C362036301F0A0FF9E
:1099E00000B908BDFFF789FDEC030020007C0040B2
:1099F00008B50448044B036001F03AF800B908BD0B
:109A0000FFF77BFDD4040020000C024000B585B0B8
:109A100000230193029303930D480E4A02604360B2
:109A200083604FF6FF72C260836104F011F950B990
:109A300000230193039301A9054804F0B5FB20B965
:109A400005B05DF804FBFFF758FDFFF756FD00BFBA
:109A5000BC0200200014004000B595B0382200215F
:109A600006A808F02AFC00230193029303930493B1
:109A700005934FF4007002F0ADFF022306934FF4FC
:109A80008072099240220A920D930E9306220F9241
:109A90006C21109111931292139306A803F054F8BD
:109AA00080B90F23019303230293002303930493AC
:109AB000059304210DEB010003F0FEFA20B915B067
:109AC0005DF804FBFFF719FDFFF717FD08B500F07F
:109AD000A3FBFFF7C1FFFFF75DFCFFF7CDFCFFF72E
:109AE0000FFDFFF731FDFFF78BFDFFF7E7FDFFF7F8
:109AF0006DFE08F06DF8FFF793FEFFF7D1FEFFF75C
:109B000033FFFFF757FFFFF773FFFFF77FFFFFF705
:109B1000BBF806F015FA0C4A00210C4806F03EFA94
:109B20000B4B18600B4A00210B4806F037FA0B4B21
:109B300018600B4A00210B4806F030FA0A4B1860F7
:109B400006F010FAFEE700BF30430108CD9400088C
:109B50006C0200200C430108E19400086802002018
:109B6000E8420108D79400086402002000B583B0E1
:109B70000E4B1A6E42F001021A661A6E02F00102D2
:109B80000092009A9A6D42F080529A659B6D03F0A4
:109B900080530193019B00220F216FF0010000F020
:109BA000E5FF02F09DFF03B05DF804FB00100240EA
:109BB00070B59CB0044600211791189119911A9123
:109BC0001B91442206A808F078FB2368B3F1A04F4C
:109BD00004D05B4A934251D01CB070BD4FF4004397
:109BE00006934FF00053159306A803F097FB002847
:109BF00033D1544A136801331360012B30D0524BD8
:109C0000DA6C42F00102DA64DB6C03F001030293C8
:109C1000029B01231793032318930025199517A975
:109C20004FF0904001F0C6FC4848494B03600523C3
:109C300043608560C560802303614FF40073436116
:109C40004FF4006383612023C361056200F0DEFFEF
:109C500088B93E4B63659C62BEE7FFF74EFCC8E7E0
:109C6000394BDA6C42F40052DA64DB6C03F40053D3
:109C70000193019BC3E7FFF740FCEAE74FF4004381
:109C800006934FF00053159306A803F047FB0028F6
:109C900044D12C4A136801331360012B41D02A4B65
:109CA000DA6C42F00102DA64DA6C02F0010204922A
:109CB000049ADA6C42F00402DA64DB6C03F0040309
:109CC0000593059BC0231793032618960025199525
:109CD00017A94FF0904001F06DFC102317931896D0
:109CE000199517A91B4801F065FC1B481B4B036025
:109CF000242343608560C560802303614FF40073B3
:109D000043614FF4006383612023C361056200F067
:109D10007DFF88B9104B63659C625DE7FFF7EDFB43
:109D2000B7E7094BDA6C42F40052DA64DB6C03F4F7
:109D300000530393039BB2E7FFF7DFFBEAE700BFA3
:109D40000001005094060020001002405C05002035
:109D50000800024000080048FC0400201C000240EB
:109D60000268094B9A4200D0704782B003F58063C5
:109D70009A6C42F008029A649B6C03F0080301930A
:109D8000019B02B0704700BF000C024010B598B0B4
:109D900004460021139114911591169117914422B4
:109DA00002A808F08AFA22681D4B9A4201D018B026
:109DB00010BD4FF4805302934FF000730E9302A82E
:109DC00003F0ACFA48BB174B9A6D42F000729A65EB
:109DD0009A6D02F000720092009ADA6C42F0020270
:109DE000DA64DB6C03F002030193019B4FF44073D0
:109DF00013930223149300241594169409231793A4
:109E000013A9094801F0D6FB22460521152000F0D0
:109E1000ADFE152000F0BAFEC9E7FFF76EFBD2E7F2
:109E2000006400400010024000040048F0B59BB000
:109E30000446002115911691179118911991442209
:109E400004A808F03AFA2268224B9A4201D01BB0CB
:109E5000F0BD4023049304A803F060FA002835D134
:109E60001D4CE36C43F00103E364E36C03F0010376
:109E70000193019BE36C43F00203E364E36C03F0A2
:109E800002030293029B4FF4004315931227169787
:109E90000025179518950426199615A94FF090409E
:109EA00001F088FB8023159316971795189519963E
:109EB00015A90A4801F07EFBA36D43F40013A365C6
:109EC000A36D03F400130393039BC0E7FFF715FB97
:109ED000C6E700BF005400400010024000040048E4
:109EE00010B598B004460021139114911591169164
:109EF0001791442202A808F0E0F92268174B9A4211
:109F000001D018B010BD4FF40073029302A803F003
:109F100005FA00BB124B9A6D42F000429A659A6DA9
:109F200002F000420092009ADA6C42F00202DA6417
:109F3000DB6C03F002030193019B202313930223A4
:109F400014930023159316930B23179313A9054815
:109F500001F030FBD5E7FFF7D0FADBE7007C0040EB
:109F6000001002400004004800B585B003681A4A9A
:109F7000934208D0194A934210D0194A934220D0F4
:109F800005B05DF804FB174B1A6E42F400621A66C6
:109F90001B6E03F400630193019BF1E7114B9A6D73
:109FA00042F010029A659B6D03F010030293029B2E
:109FB00000220521362000F0D9FD362000F0E6FD14
:109FC000DEE7084B9A6D42F020029A659B6D03F024
:109FD00020030393039BD3E7002C014000100040B3
:109FE000001400400010024082B003680E4A934201
:109FF00004D00E4A93420CD002B070470C4B9A6DBD
:10A0000042F002029A659B6D03F002030093009BED
:10A01000F2E7074B1A6E42F480321A661B6E03F4A5
:10A0200080330193019BE7E70004004000400140BA
:10A030000010024000B589B00023039304930593F8
:10A04000069307930368274A934208D0264A93420F
:10A050001CD0264A93422ED009B05DF804FB244B55
:10A06000DA6C42F00102DA64DB6C03F00103009366
:10A07000009B4FF4E06303930223049306230793AA
:10A0800003A94FF0904001F095FAE5E7184BDA6C20
:10A0900042F00102DA64DB6C03F001030193019BDF
:10A0A0001023039302230493079303A94FF09040D6
:10A0B00001F080FAD0E70E4BDA6C42F00102DA646C
:10A0C000DB6C03F001030293029B0C230393022336
:10A0D00004930923079303A94FF0904001F06AFA13
:10A0E000BAE700BF002C01400004004000400140DE
:10A0F0000010024030B589B004461E4B9A6D42F004
:10A1000001029A659B6D03F001030193019B02A973
:10A1100003A803F0E5F803F0D1F8174AA2FB0023E7
:10A120009B0C013B15484FF08042026040F2E73241
:10A13000C260436000230361836003F089FD05462C
:10A1400010B1284609B030BD0C4803F0CFFB0546DE
:10A150000028F6D11C2000F019FD0F2C01D9012593
:10A16000EFE7002221461C2000F000FD044B1C609C
:10A17000E7E700BF0010024083DE1B439806002083
:10A180000C000020FEE7FEE7FEE7FEE7FEE7704773
:10A1900008B5022001F0FEFA08BD000008B502482B
:10A1A00000F0A0FD08BD00BF5C05002008B5024816
:10A1B00000F098FD08BD00BFFC04002008B502486F
:10A1C00002F0C6F908BD00BFB02F002008B5024854
:10A1D00001F021F908BD00BF7004002008B5024855
:10A1E00003F0CAFB08BD00BF9806002008B502486E
:10A1F00003F0C2FB08BD00BF08030020044BD3F8E6
:10A20000882042F47002C3F88820024A9A6070479E
:10A2100000ED00E00080000810B5032000F094FC81
:10A220000F20FFF767FF10B10124204610BD044640
:10A23000FFF79CFCF9E70000034A1368034909682B
:10A240000B441360704700BFE406002008000020A4
:10A25000014B1868704700BFE406002010B430308E
:10A260000B0A9B0003F00C03C45801F01F014FF0D0
:10A270001F0C0CFA01FC24EA0C0CC2F384628A4025
:10A280004CEA0202C2505DF8044B704710B414301F
:10A290004B0E9B0003F00403C458C1F304514FF06C
:10A2A000070C0CFA01FC24EA0C0C8A404CEA02026E
:10A2B000C2505DF8044B704730B583B00023019362
:10A2C000002800F00D810446C36D13B323689A681B
:10A2D00012F0005F05D09A6822F0204222F03F027F
:10A2E0009A602268936813F0805F1FD1936823F00F
:10A2F000104323F03F0343F080539360794B1B6876
:10A300009B09794AA2FB03239B0901335B0001935C
:10A3100009E0FFF74DFC0023236684F85830D5E7A9
:10A32000019B013B0193019B002BF9D122689368AB
:10A3300013F0805F40F09C80E36D43F01003E36511
:10A34000236E43F0010323660120936813F0040396
:10A3500000D00123E16D11F0100F40F0BA80002B06
:10A3600040F0B780E36D23F4817343F00203E365AB
:10A37000936813F0010F15D14FF0A0439A6812F0C3
:10A38000010200D00122594B9B6813F0010300D059
:10A390000123134306D1636855498A6822F47C126D
:10A3A00013438B60627FE36B43EA4233E2681343FB
:10A3B000A268134394F8242043EA0243012A59D0A7
:10A3C000E26A22B102F47872216B0A4313432168D6
:10A3D000CD68484A2A401A43CA602268136923F0AC
:10A3E0004063616B0B43136121688B6813F00403B6
:10A3F00000D001238A6812F0080200D0012243BB7A
:10A400003ABB237F94F83820520042EA8332CB686B
:10A4100023F4804323F002031343CB60236973B317
:10A420002268136943F4803313612268D2F8C03084
:10A4300023F47F5323F03F0321690B43C2F8C0305C
:10A4400094F84030012B29D02268136923F00103CE
:10A4500013616369012B33D02268136B23F00F0360
:10A460001363E36D23F0030343F00103E36535E079
:10A4700000206AE7A26A013A43EA4243A0E7226861
:10A48000136923F4803313612268D2F8C03023F4B7
:10A490007F5323F03F03C2F8C030D1E721680B6936
:10A4A00023F4FF6323F00403626CA56C2A43E56C7C
:10A4B0002A43256D2A43134343F001030B61C8E788
:10A4C00021680B6B23F00F03226A013A13430B63DD
:10A4D000C7E7E36D43F01003E365012003B030BD2F
:10A4E0000120FBE704000020632D3E050001005021
:10A4F000000300500740F0FFF0B583B00023019344
:10A5000090F85830012B00F01E8204460D460123BE
:10A5100080F858300068836813F0040F09D0E36DA9
:10A5200043F02003E3650120002384F8583003B092
:10A53000F0BD0A684968FFF791FE2068836813F050
:10A54000040300D00123866816F0080600D0012617
:10A55000002B3ED1002E3CD1AA68B2F1004F6BD047
:10A560002968FFF793FE2268536923F00043536183
:10A5700069692268D368C3F3C1035B009940286905
:10A58000042866D0603252F82070A84B3B402F68F8
:10A5900007F0F84C41EA0C010B4343F0004342F84A
:10A5A000203023682869AA69603353F8201021F00D
:10A5B00080710A4343F82020236829692A7F012AF1
:10A5C00044D0603353F8212022F00072324343F824
:10A5D000212023689A6812F0010F12D12A68E868D6
:10A5E0009349884200F09C80D3F8B010C2F3120265
:10A5F00021EA0202C3F8B020EA688D4B9A4200F0CB
:10A6000097802B688B4A134200F095818A4A9268A2
:10A6100002F0E0718948834200F044818848834217
:10A6200000F040818748834200F06281864883427F
:10A6300000F07081002077E700222968FFF726FEEE
:10A640002268536943F00043536191E74FF000766D
:10A65000B7E7136E116EC1F384612B68C3F3120068
:10A6600078BBC3F38463994233D021684B6E4A6E42
:10A67000C2F384622B68C3F3120078BBC3F3846314
:10A680009A4233D021688B6E8A6EC2F384622B6843
:10A69000C3F3120078BBC3F384639A4233D02168BA
:10A6A000CB6ECA6EC2F384622B68C3F3120078BB10
:10A6B000C3F384639A428CD1CB6E23F00043CB6604
:10A6C00087E793FAA3F313B1B3FA83F3CBE720231D
:10A6D000C9E7136E23F000431366C6E793FAA3F3AA
:10A6E00013B1B3FA83F3CBE72023C9E74B6E23F012
:10A6F00000434B66C6E793FAA3F313B1B3FA83F3AF
:10A70000CBE72023C9E78B6E23F000438B66C6E7B7
:10A7100093FAA3F313B1B3FA83F3CBE72023C9E78A
:10A72000D3F8B010C2F312020A43C3F8B02063E7B3
:10A7300020682B68C3F3120626BB9A0E013202F082
:10A740001F02092A8CBF00220122002A52D046BBD8
:10A75000990E0131890601F0F84176BB9F0E013751
:10A7600007F01F070122BA401143AEBB9B0E013315
:10A7700003F01F0303EB43031B051943AA68FFF70C
:10A7800085FD3EE793FAA3F24AB1B2FA82F20132B2
:10A7900002F01F02092A8CBF00220122D5E72022E5
:10A7A000F5E793FAA3F131B1B1FA81F101318906EC
:10A7B00001F0F841D1E72021F8E793FAA3F24AB17A
:10A7C000B2FA82F2013202F01F024FF0010C0CFAD1
:10A7D00002F2C9E72022F5E793FAA3F343B1B3FAF3
:10A7E00083F3013303F01F0303EB43031B05C4E7AB
:10A7F0002023F6E756BB990E0131890601F0F84196
:10A8000086BB9F0E013707F01F070122BA40114394
:10A81000BEBB9B0E013303F01F0303EB43031E3B40
:10A820001B0543F000731943A8E700BF00F0FF03C6
:10A8300000007F400000088000030050000021C39A
:10A840001000C090000052C7000084CB93FAA3F11F
:10A8500031B1B1FA81F10131890601F0F841CFE758
:10A860002021F8E793FAA3F24AB1B2FA82F2013258
:10A8700002F01F024FF0010C0CFA02F2C7E720228F
:10A88000F5E793FAA3F35BB1B3FA83F3013303F073
:10A890001F0303EB43031E3B1B0543F00073C2E79A
:10A8A0002023F3E712F4000F7FF4BCAE2368B3F16A
:10A8B000A04F01D0002037E641F40001234A9368FD
:10A8C00023F0E07319439160214B1B689B09214AD7
:10A8D000A2FB03239B09013303EB43039B0001937A
:10A8E000019B1BB1019B013B0193F9E700201BE693
:10A8F00012F0807F7FF49AAE2268174B9A421CD0E8
:10A9000041F08071114A936823F0E073194391601C
:10A91000002009E612F4800F11D122680E4B9A42F2
:10A920000FD041F4800309498A6822F0E072134392
:10A930008B600020F8E50020F6E50020F4E500201B
:10A94000F2E50020F0E50220F1E500BF0003005031
:10A9500004000020632D3E050001005090F85820AF
:10A96000012A7FD010B49DB00346012280F8582000
:10A970000022189219920068B0F1A04F39D000223D
:10A980000192019A002A37D0926812F0040200D096
:10A990000122806810F0040F54D1002A52D10A68B5
:10A9A000002A32D0304CA26822F46042486893F802
:10A9B00038C040EA4C300243A2604FF0A042906899
:10A9C00010F0010000D00120284A926812F0010224
:10A9D00000D00122024341D1234CA26822F47162CB
:10A9E00022F00F020868896801430A43A260002030
:10A9F0002DE01E4A0192C4E7DA6D42F02002DA65CA
:10AA0000002283F85820012024E017498A6822F4A4
:10AA100060428A604FF0A042916811F0010100D0BD
:10AA20000121124A926812F0010200D001220A4369
:10AA300016D10D498A6822F4716222F00F028A60F1
:10AA4000002004E0DA6D42F02002DA6501200022E5
:10AA500083F858201DB05DF8044B70470020F6E7DE
:10AA60000020F4E70220704700030050000100506E
:10AA7000A0B110B5044690F8213053B100206062B7
:10AA80006060A060E06020616061012384F8213093
:10AA900010BD80F82030FFF763F9EFE70120704721
:10AAA000002807DB00F01F02400901239340024AFF
:10AAB00042F82030704700BF00E100E0002808DBCA
:10AAC0000901C9B200F1604000F5614080F800134F
:10AAD000704700F00F000901C9B2014B19547047CB
:10AAE00014ED00E000B500F00700C0F1070CBCF168
:10AAF000040F28BF4FF0040C031D062B0FD9C31EF3
:10AB00004FF0FF3E0EFA0CF021EA000199400EFAD8
:10AB100003FE22EA0E0241EA02005DF804FB002374
:10AB2000EEE70000BFF34F8F0549CA6802F4E06208
:10AB3000044B1343CB60BFF34F8F00BFFDE700BF53
:10AB400000ED00E00400FA05074AD36823F4E0634F
:10AB50001B041B0C000200F4E060034343F0BF63DE
:10AB600043F40033D360704700ED00E010B50446B5
:10AB7000054BD868C0F30220FFF7B4FF014620461A
:10AB8000FFF79CFF10BD00BF00ED00E008B5FFF728
:10AB900087FF08BD08B5FFF7C5FF000003680C4A32
:10ABA000934213D80B49DBB2083B0B4AA2FB0323A9
:10ABB000426C22F003020A448264084AC264C3F36E
:10ABC0000413012202FA03F3036570470449EAE71C
:10ABD0000704024000080240CDCCCCCC80080240E3
:10ABE000200802400379074A1A4492004265064A47
:10ABF0008265013B03F01F03012202FA03F3C365E0
:10AC0000704700BF3F8200104009024000285BD01F
:10AC100010B5044601682D4B99423DD82C4B0B448E
:10AC20002C4AA2FB03231B099B0043642A4B0364A9
:10AC3000022384F825300A6822F4FF4222F07002D1
:10AC4000A368E06803432069034360690343A06984
:10AC50000343E0690343206A034313430B60204628
:10AC6000FFF79CFFA368B3F5804F20D0A36C227937
:10AC70001A60E36C226D5A606368013B032B19D99B
:10AC800000236365A365E3650020E063012384F886
:10AC9000253084F8240010BD104B0B440D4AA2FB54
:10ACA00003231B099B0043640D4B0364C0E700238F
:10ACB0006360DBE72046FFF795FF636D00221A60B3
:10ACC000A36DE26D5A60DFE7012070470704024080
:10ACD000F8FFFDBFCDCCCCCC00000240F8FBFDBF9F
:10ACE0000004024038B5036C196804682568436C99
:10ACF00003F01F0304229A400A4215D015F0040FF6
:10AD000012D0236813F0200F03D1236823F004032B
:10AD10002360436C03F01F02016C042393404B60DB
:10AD2000036B03B1984738BD02229A400A421CD0F7
:10AD300015F0020F19D0236813F0200F06D12368F5
:10AD400023F00A032360012380F82530436C03F0CD
:10AD50001F02016C022393404B60002380F82430D3
:10AD6000C36A002BDFD09847DDE7082202FA03F31D
:10AD70000B42D8D015F0080FD5D0236823F00E036E
:10AD80002360436C03F01F03016C012202FA03F3FA
:10AD90004B60C26380F82520002380F82430436B89
:10ADA000002BC0D09847BEE710B4154B0364016870
:10ADB000D1F8802022F4F812446B42EA0442C1F830
:10ADC0008020104A42640168D1F8802022F070622D
:10ADD000846B42EA0462C1F880200B4A8264D83254
:10ADE000C264D83202651832426502E0002243F89C
:10ADF000042B064A9342F9D95DF8044B704700BF13
:10AE000000A4004070A40040B0A400404FA7004040
:10AE100070B54C68E4B90D698C6825430C6845EA47
:10AE20008445CC690E6A44EA06648E6934434E69EF
:10AE30003443CE683443406D03EBC30300EBC30ED1
:10AE400040F83350CEF804400EF1080E002019E00F
:10AE50000C698D6825430C68254345F08045E0E783
:10AE600002EB000C9CF803409CF802301B0443EA00
:10AE700004639CF8014043EA0423145C23434EF826
:10AE8000043B0430CB89024CE35C8342E8D870BDBC
:10AE90006C430108002800F0E38038B5044690F8C0
:10AEA0005C30D3B12268936923F010039361FFF7FC
:10AEB000CFF9054623689A6912F0080F12D0FFF700
:10AEC000C7F9401B0A28F5D9236E43F00103236616
:10AED000032384F85C30012038BD80F85D30FEF734
:10AEE00055FFDFE79A6942F001029A61FFF7B0F976
:10AEF000054623689A6912F0010F0DD1FFF7A8F9F2
:10AF0000401B0A28F5D9236E43F00103236603236F
:10AF100084F85C300120DFE79A6942F002029A610E
:10AF20002268504B9A4242D0237C012B45D02268A4
:10AF3000936943F040039361637C012B43D0226803
:10AF4000936923F480439361A37C012B41D0226851
:10AF5000936943F4805393612268936923F44073A7
:10AF6000A1680B4393612268936923F0A403936162
:10AF70002268136923F010031361E368012B2ED0BC
:10AF8000002B31D0022B54D02268936943F0800308
:10AF900093612268136943F010031361E368032B84
:10AFA00022D12268936943F0200393611CE0626818
:10AFB000A3F58063C3F80025B6E72268936923F000
:10AFC00040039361B8E72268936943F48043936137
:10AFD000BAE72268936923F480539361BCE722683F
:10AFE000936943F004039361A3695A1EE369013B2B
:10AFF0001B0243EA4263226A013A13436269013A3F
:10B00000216843EA0243CB61A368B3F5407F16D0C1
:10B010002268D2F8C030E16B0B43C2F8C030204642
:10B02000FFF7C2FE0020A0652066012384F85C3093
:10B0300052E72268936943F020039361D4E7A36A3F
:10B04000013BE26A013A43EA0223226B013A43EAF6
:10B050000213626A013A216843EA0243CB60D7E7F0
:10B06000012070470064004090F85C30013BDBB287
:10B07000012B05D9036E43F00203036601207047DC
:10B080000B68A3B110B4CA680B6943EA42724B69FA
:10B090008C6843EA8473406C496800EBC10C40F84B
:10B0A0003120CCF8043000205DF8044B70478A68EA
:10B0B000CB68DB0643EA82730A6943EA02434A69C2
:10B0C0001343026C496842F821300020704790F821
:10B0D0005C30DBB2012B05D0036E43F00403036642
:10B0E00001207047022380F85C300268936923F0E6
:10B0F00001039361002303661846704790F85C30A3
:10B10000DBB2022B39D10268936943F001039361EA
:10B1100000230268916911F0010F0CD10A2B01D8AC
:10B120000133F6E7036E43F001030366032380F85F
:10B130005C3001207047936923F010039361002372
:10B140000268916911F0080F0CD00A2B01D8013365
:10B15000F6E7036E43F001030366032380F85C30D7
:10B1600001207047936943F00203936100238365D4
:10B17000012280F85C2018467047036E43F00803F4
:10B1800003660120704738B5044690F85C30DBB2A6
:10B19000022B1BD10368D3F8C40010F4001F05D0A4
:10B1A000236E43F400732366012014E0D3F8C450E7
:10B1B000C5F301452B462046FFF72AFE22680123EE
:10B1C000AB40C2F8CC30A365002004E0036E43F02E
:10B1D00008030366012038BD70B590F85C40E4B206
:10B1E000022C7CD140290BD00468D4F8985015F07B
:10B1F0000F0F1BD1036E43F480730366012073E0CD
:10B200000468D4F8905015F00F0F05D1036E43F485
:10B2100080730366012067E0D4F89060C6F30126CE
:10B22000846C06EBC60504EBC50E08E0D4F8986004
:10B23000C6F30126C46C06EBC60504EBC50EDEF8AA
:10B24000004004F08044546064BBDEF80040C4F366
:10B250008A441460DEF8004004F000549460DEF884
:10B26000004004F000441461BEF80440D461DEF8EC
:10B27000044004F47024D460DEF8044004F4801424
:10B280005461DEF8044004F4001494619EF8074011
:10B2900004F07F041462DEF80440E40F54624FF0BF
:10B2A000000C0CE0DEF8004024F060441460D1E7AC
:10B2B0000EEB0C04247A03F80C400CF1010CD48939
:10B2C0000A4D2C5D6445F3D8402904D00368C3F8C7
:10B2D0009C60002008E00368C3F89460F9E7036EFF
:10B2E00043F008030366012070BD00BF6C430108F2
:10B2F0000368D3F8C40000F00700704790F85C3092
:10B30000013BDBB2012B05D9036E43F00203036658
:10B310000120704770B40468A36D11F0070602D0D5
:10B3200013F0010F23D011F0380F02D013F0020FE9
:10B330001DD011F4E07F02D013F0040F17D011F4E8
:10B34000F05F02D013F0080F11D011F4604F02D05B
:10B3500013F0100F0BD011F4403F02D013F0200F68
:10B3600005D011F47C0F06D013F0400F03D1E56D2A
:10B3700045F00105E56516B113F0010F23D111F079
:10B38000380F02D013F0020F1DD111F4E07F02D06C
:10B3900013F0040F17D111F4F05F02D013F0080F6F
:10B3A00011D111F4604F02D013F0100F0BD111F432
:10B3B000403F02D013F0200F05D111F47C0F07D0CD
:10B3C00013F0400F04D00468E36D43F00203E3651B
:10B3D00011F0800F05D00468D4F8DC301343C4F8B2
:10B3E000DC3011F4807F05D00468D4F8E0301343DA
:10B3F000C4F8E0300268536D0B435365002070BC05
:10B400007047704770477047704770477047704784
:10B410007047704770472DE9F843044603681A6D7A
:10B4200002F4E0595A6D09EA02091A6D02F00708A0
:10B430005A6D08EA02081F6D07F038075A6D174069
:10B440001D6D05F471055A6D15401E6D06F46026DC
:10B450005A6D16401A6D12F0400F03D05A6D12F05B
:10B46000400F51D123681A6D12F4807F03D05A6DBA
:10B4700012F4807F4DD1B9F1000F56D1B8F1000F11
:10B480005BD1002F61D123681A6D12F4007F03D0C5
:10B490005A6D12F4007F5FD123681A6D12F0800F8D
:10B4A00003D05A6D12F0800F5DD123681A6D12F42B
:10B4B000005F03D05A6D12F4005F5FD123681A6DEC
:10B4C00012F4004F03D05A6D12F4004F5DD123687F
:10B4D0001A6D12F4804F0AD05A6D12F4804F06D0C4
:10B4E0004FF480421A65236E43F080032366002EDA
:10B4F00052D125B123681D65236E2B432366236E2D
:10B50000002B50D1BDE8F88340221A65FFF780FF79
:10B51000A8E7D3F8D810D3F8E0204FF4807018656E
:10B5200011402046FFF771FFA5E72368C3F850904C
:10B5300049462046FFF765FFA0E72368C3F850801F
:10B5400041462046FDF7BCFD9BE723681F65394651
:10B550002046FFF757FF96E74FF400721A65204622
:10B56000FFF751FF98E7D3F8D410D3F8DC20802000
:10B57000186511402046FFF747FF96E74FF4005249
:10B580001A652046FFF742FF98E74FF400421A651C
:10B590002046FFF73CFF9AE723681E6531462046A8
:10B5A000FFF738FFA5E72046FFF733FFAAE790F83B
:10B5B0005C007047F0B583B0002362E085685E00F0
:10B5C0000324B44025EA0405CC68B4402C438460CD
:10B5D000456825EA0C054C68C4F300149C402C43D4
:10B5E00044605FE0DD08083550F8254003F0070CA3
:10B5F0004FEA8C0C4FF00F0E0EFA0CFE24EA0E0EE2
:10B600000C6904FA0CF444EA0E0440F8254060E0AA
:10B61000052400E0002404FA0EF42C430CF1020C83
:10B62000554D45F82C40554CA568D44325EA0206F3
:10B630004F6817F4801F01D042EA05064F4DAE60F7
:10B64000ED6804EA05064F6817F4001F01D042EACE
:10B6500005064A4DEE606D6804EA05064F6817F46A
:10B66000003F01D042EA0506444D6E602D682C4033
:10B670004E6816F4803F01D042EA05043F4A146048
:10B6800001330A6832FA03F474D04FF0010C0CFA5B
:10B6900003FC1CEA0202F3D04C6804F00304013CF2
:10B6A000012C8BD94C6804F00304032C0CD0C46823
:10B6B0005D004FF0030C0CFA05FC24EA0C0C8C68BE
:10B6C000AC4044EA0C04C4604C6804F00304022C4F
:10B6D00088D004684FEA430E4FF0030C0CFA0EFCBE
:10B6E00024EA0C0C4C6804F0030404FA0EF444EA57
:10B6F0000C0404604C6814F4403FC1D0204C256E0B
:10B7000045F001052566246E04F001040194019CB6
:10B710004FEA930C0CF10205174C54F8255003F036
:10B72000030E4FEA8E0E0F2404FA0EF425EA0405E8
:10B73000B0F1904F3FF46EAF124CA04212D004F51E
:10B740008064A04210D004F58064A0420ED004F5BD
:10B750008064A0420CD004F58064A0423FF458AF4E
:10B76000062458E7012456E7022454E7032452E74D
:10B77000042450E703B0F0BD000001400004014084
:10B7800000100240000400480AB1816170478162E4
:10B790007047704708B5054B5B69034200D108BD8F
:10B7A000024B5861FFF7F5FFF9E700BF00040140C5
:10B7B000002859D010B5044690F84130002B43D0F2
:10B7C000242384F841302268136823F001031360B6
:10B7D0006368226823F0706313612268936823F41E
:10B7E00000439360E368012B33D0A368226843F4DD
:10B7F00004439360E368022B31D02268536843F01E
:10B80000007343F4004353602268D36823F4004379
:10B81000D360236962691343A169226843EA012363
:10B82000D360E369216A22680B43136022681368BE
:10B8300043F00103136000206064202384F841304A
:10B84000206384F8420010BD80F84030FEF7EEFA25
:10B85000B6E7A368226843F400439360CAE723680D
:10B860004FF400625A60C8E701207047034690F821
:10B870004120D2B2202A23D190F84020012A21D0A1
:10B88000012280F84020242280F8412000680268CC
:10B8900022F0010202601868026822F480520260FD
:10B8A000186802681143016019680A6842F00102D1
:10B8B0000A60202283F84120002083F8400070476E
:10B8C0000220704702207047034690F84120D2B210
:10B8D000202A21D190F84020012A1FD0012280F88F
:10B8E0004020242280F841200068026822F00102F2
:10B8F00002601868026822F4706242EA0122026063
:10B9000019680A6842F001020A60202283F8412087
:10B91000002083F8400070470220704702207047E3
:10B92000002854D0F8B5044690F83630002B44D0A7
:10B93000022384F836302568EB686168012903D05A
:10B94000A26AB2F5000F01D123F01E0362694FF61F
:10B95000FF70824205D023F0005323F4604323F0AC
:10B96000C0031C481840A3680B43266A3343666A29
:10B970003343A66A3343034319B9E069276938435F
:10B980000343012902D0B6F5000F03D1E168206915
:10B9900001430B434FF6FF718A4204D0A1690A4369
:10B9A000E1690A431343EB6023680B4A934209D0D1
:10B9B000012384F836300020F8BD80F83530FEF7DA
:10B9C0008FFAB5E7E26A216B0A431A62F0E70120B9
:10B9D000704700BFFEF119FF007C004038B512F43B
:10B9E000804F43D00468B4F8503091F800C04FEA5B
:10B9F000CC0E1EFA83F32344B3F80244C4F30904C3
:10BA00008B69A34228D31B1B8B618B697BB90568AB
:10BA100035F82C309BB223F4804323F0700383F479
:10BA2000005343F4004343F0800325F82C3012F018
:10BA3000400F0ED002680D7832F825309BB223F407
:10BA4000E04323F0700343F4004343F0C00322F8C3
:10BA5000253024B9204638BD00238B61D5E7234625
:10BA60000A894969006803F075FBF3E70468B4F8D4
:10BA7000503091F800C04FEACC0E1EFA83F32344F5
:10BA8000B3F80644C4F309048B69A3422FD31B1BEC
:10BA90008B618B697BB9056835F82C309BB223F438
:10BAA000804323F0700383F4005343F4004343F0D6
:10BAB000800325F82C3012F0400F0FD1026891F866
:10BAC00000C032F82C309BB223F4E04323F0700323
:10BAD00043F4004343F0C00322F82C30002CB9D0CB
:10BAE00023464A894969006803F034FBB2E7002322
:10BAF0008B61CEE700286DD030B587B0044690F852
:10BB0000A9323BB1032384F8A932206802F004FC77
:10BB100000231FE080F8A83206F08CF9F2E75A1CE7
:10BB200002EB820104EBC1010120487002EB8201AB
:10BB300004F8313003EB830104EBC101CB8602EB47
:10BB4000820C04EBCC0C00208CF803008863C863E3
:10BB50000864D3B260688342E1D3002316E003EBAC
:10BB6000830204EBC202002182F8691182F8683175
:10BB700082F86B11C2F87811C2F87C1103EB8302D2
:10BB800004EBC202C2F880110133DBB29842E6D85E
:10BB9000A4465CF8105BEE46BCE80F00AEE80F0070
:10BBA000DCF80030CEF80030231D0ECB284602F022
:10BBB000BDFB002384F82430012384F8A932E36913
:10BBC000012B02D0002007B030BD204600F0ECFE73
:10BBD0000020F8E70120704790F8A832012B0ED022
:10BBE00010B50446012380F8A832006802F08BFBF0
:10BBF000206802F0DEFE002084F8A80210BD0220BA
:10BC0000704770B505460C46164612F0400F00F01E
:10BC100009810268B2F850300978C80010FA83F33D
:10BC20001344B3F80224C2F30902A369934251D921
:10BC30009B1AA361A369002B68D16378002B4CD1B8
:10BC40002A68B2F8503012FA83F30344B3F802249E
:10BC500092B222F4F84292B2A3F80224B3F802247A
:10BC60006FEA42426FEA524292B2A3F802242A6873
:10BC70006378002B3DD1B2F8503012FA83F322786A
:10BC800003EBC203B3F8062492B222F4F84292B254
:10BC9000A3F80624B3F806246FEA42426FEA524240
:10BCA00092B2A3F806242178284606F009F916F482
:10BCB000804F40D02A68217832F821309BB223F49B
:10BCC000E04323F0700343F4404343F0800322F841
:10BCD000213030E00023A361ACE7012BC7D12A68F3
:10BCE000B2F8503012FA83F303440022A3F802247E
:10BCF000BDE7012BD7D1B2F8503012FA83F3227886
:10BD000003EBC2030022A3F80624CCE716F4804F0D
:10BD10000DD0286830F821309BB223F4E04323F0A3
:10BD2000700343F4404343F0800320F8213094F83B
:10BD30002430012B12D02A68217832F821309BB2AE
:10BD400023F4E04323F0400383F0300343F4004343
:10BD500043F0800322F82130002070BD6369134452
:10BD60006361E3691344E361216A236999421BD348
:10BD7000C91A21626278002A3FD12968B1F850209F
:10BD800011FA82F2217802EBC1023E2B18D959092F
:10BD900013F01F0F00D101396FEAC1616FEA514101
:10BDA00089B2A2F802142AE021B9002384F82430D1
:10BDB0001346DFE7002384F8243023620B46D9E7DB
:10BDC0008BB9B2F8021489B221F4F84189B2A2F811
:10BDD0000214B2F802146FEA41416FEA514189B28C
:10BDE000A2F802140BE0590813F0010F00D0013142
:10BDF000890289B2A2F8021401E0012A06D09BB29E
:10BE000022896169286802F0E3FD94E72968B1F8A6
:10BE1000502011FA82F2217802EBC10299B2A2F805
:10BE20000214ECE70268B2F850300978C80010FA42
:10BE300083F31344B3F80624C2F30902A3699342BF
:10BE400052D39B1AA361A369002B69D16378002B9D
:10BE50004DD12A68B2F8503012FA83F30344B3F894
:10BE6000022492B222F4F84292B2A3F80224B3F868
:10BE700002246FEA42426FEA524292B2A3F80224CD
:10BE80002A686378002B3ED1B2F8503012FA83F35F
:10BE9000227803EBC203B3F8062492B222F4F842EC
:10BEA00092B2A3F80624B3F806246FEA42426FEA7E
:10BEB000524292B2A3F806242178284606F000F8F0
:10BEC00016F4804F7FF437AF2A68217832F821309A
:10BED0009BB223F4E04323F0700343F4404343F068
:10BEE000800322F8213026E70023A361ABE7012B72
:10BEF000C6D12A68B2F8503012FA83F30344002204
:10BF0000A3F80224BCE7012BD6D1B2F8503012FAC4
:10BF100083F3227803EBC2030022A3F80624CBE7C5
:10BF200016F4804F0DD1286830F821309BB223F4ED
:10BF3000E04323F0700343F4404343F0800320F8D0
:10BF4000213094F82430012B7FF4F5AE636913445B
:10BF50006361E3691344E361216A236999421BD356
:10BF6000C91A216229686278002A3ED1B1F85020AE
:10BF700011FA82F2217802EBC1023E2B18D959093D
:10BF800013F01F0F00D101396FEAC1616FEA51410F
:10BF900089B2A2F806142AE021B9002384F82430DB
:10BFA0001346DFE70023236284F824300B46D9E7E9
:10BFB0008BB9B2F8061489B221F4F84189B2A2F81B
:10BFC0000614B2F806146FEA41416FEA514189B292
:10BFD000A2F806140BE0590813F0010F00D001314C
:10BFE000890289B2A2F8061401E0012A06D09BB2A8
:10BFF00062896169286802F0EBFC9CE6B1F8502088
:10C0000011FA82F2217802EBC10299B2A2F8061469
:10C01000EDE72DE9F0410546CAE003889BB223F421
:10C02000E14323F070036FEA43436FEA53439BB24B
:10C0300003802968B1F8503095F82820D20012FA10
:10C0400083F30B44B3F80234C3F309036B64EA6B64
:10C050001A44EA630021284605F032FF95F824309F
:10C06000002B00F0A5802B6C002B40F0A18095F8F0
:10C0700024302A6843F08003A2F84C30002385F86E
:10C08000243095E0B0F8503095F86821D20012FACB
:10C0900083F30344B3F80634C3F30903C5F88431CA
:10C0A000B5F86E2105F52C7103F054F82A68138851
:10C0B00023F070031B051B0D43F0800313802846FB
:10C0C00005F0EAFE74E089B9B3F8062492B222F4CE
:10C0D000F84292B2A3F80624B3F806246FEA42426B
:10C0E0006FEA524292B2A3F80624BFE04A0811F068
:10C0F000010F00D00132920292B2A3F80624B5E0FB
:10C1000030F824309EB213F4004F40F0BE8016F099
:10C11000800F4DD0621C02EB820105EBC101286843
:10C1200030F824309BB223F4E14323F070036FEA2C
:10C1300043436FEA53439BB220F82430CB78022B61
:10C1400000F0A78104EB840305EBC30300221A640B
:10C1500093F8343023B316F0400F00F063814B782E
:10C16000002B40F04C812A68B2F8503012FA83F369
:10C17000621C02EB820215F8322003EBC203B3F813
:10C18000022492B222F4F84292B2A3F80224B3F845
:10C1900002246FEA42426FEA524292B2A3F80224AA
:10C1A000013404EB840415F83410284605F088FEA9
:10C1B0002868B0F8443013F4004F00F0B281B0F8B2
:10C1C0004440A3B214F00F049AD113F0100F3FF4BF
:10C1D00024AF03889AB213F4006F7FF453AF12F4C4
:10C1E000004FE5D0038823F070031B051B0D43F0BF
:10C1F000800303802868B0F8503095F86821D20099
:10C2000012FA83F30344B3F80634C3F30903C5F801
:10C2100084318BB1D5F87C1171B1B5F86E2102F083
:10C2200099FFD5F87C31D5F884211344C5F87C31C9
:10C230000021284605F038FE2B681A8812F4006F9A
:10C24000B6D1B3F8502013FA82F3D5F878113E290D
:10C250007FF639AF4A0911F01F0F00D1013A6FEA9A
:10C26000C2626FEA524292B2A3F806242A68138887
:10C270009BB223F4804323F0700383F4405343F4D0
:10C28000004343F08003138092E730F8243023F01A
:10C2900070031B051B0D43F0800320F8243004EBD2
:10C2A0008401C90001F5B47105EB010804EB8403B6
:10C2B00005EBC30393F87431002B40D12868B0F824
:10C2C000503004EB840205EBC20292F86821D200E0
:10C2D00012FA83F30344B3F80674C7F3090717BBD4
:10C2E00004EB840305EBC303D3F884213A44C3F879
:10C2F0008421D3F87C213A44C3F87C21D3F88031DF
:10C300003BB104EB840305EBC303D3F878319F42C0
:10C3100070D204EB840305EBC30393F8681128463D
:10C3200005F0C2FDF3E604EB840105EBC1013B46D9
:10C33000B1F86E21D1F87C1102F00CFFD0E704EBCC
:10C34000840305EBC30393F86B31022B33D02968C8
:10C3500004EB840205EBC20292F8680131F8203048
:10C360009BB223F4E04323F0700343F4004343F013
:10C37000C00321F82030286892F8683130F8232073
:10C3800012F4804F1ED0B0F85020DB0013FA82F375
:10C390000344B3F80274C7F30907002FA0D004EBDD
:10C3A000840105EBC1013B46B1F87021D1F87C1145
:10C3B00002F0D0FE94E7324641462846FFF70EFBD6
:10C3C00007468DE7B0F85020DB0013FA82F30344F0
:10C3D000B3F80674C7F30907002F81D004EB84017A
:10C3E00005EBC1013B46B1F87221D1F87C1102F096
:10C3F000B1FE75E74146286802F0FCFA87E6012B9A
:10C400007FF4CEAE2A68B2F8503012FA83F3621C81
:10C4100002EB820215F8322003EBC2030022A3F8DC
:10C420000224BDE62A68631C03EB830305EBC30308
:10C430005B78E3B9B2F8503012FA83F3621C02EB76
:10C44000820215F8322003EBC203B3F8062492B23D
:10C4500022F4F84292B2A3F80624B3F806246FEA55
:10C4600042426FEA524292B2A3F8062498E6012BA8
:10C470007FF496AEB2F8503012FA83F3621C02EBEE
:10C48000820215F8322003EBC2030022A3F806242F
:10C4900086E616F4807F3FD12868B0F85030621CE1
:10C4A00002EB820215F83260F20012FA83F30344C1
:10C4B000B3F80234C3F3090304EB840205EBC202B0
:10C4C000126C9A4210D904EB840705EBC707D21A05
:10C4D0003A6404EB840205EBC202126C5AB931468D
:10C4E000284605F0EDFC63E604EB840205EBC2028E
:10C4F00000271764EDE704EB840205EBC202D66B5C
:10C500001E44D663526C04EB840405EBC40413444C
:10C51000636402F06FFA4BE632462846FFF771FB80
:10C5200046E60020BDE8F08190F8A832012B0DD03E
:10C5300010B50446012380F8A83280F82410006862
:10C5400002F031FA002084F8A80210BD02207047E2
:10C5500010B50446006802F037FA10F4004F23D1FA
:10C5600010F4806F24D110F4804F32D110F4005FAA
:10C5700039D110F4805F40D110F4006F67D110F012
:10C58000800F40F0818010F4007F40F0AD8010F407
:10C59000807F27D02268B2F844309BB223F48073A6
:10C5A0009BB2A2F844301DE02046FFF732FD19E0AF
:10C5B0002268B2F844309BB223F480639BB2A2F8A5
:10C5C0004430204605F08DFC00212046FFF7ACFFEB
:10C5D00008E02268B2F844309BB223F480439BB257
:10C5E000A2F8443010BD2268B2F844309BB223F464
:10C5F00000539BB2A2F84430F4E72268B2F840300E
:10C600009BB223F004039BB2A2F840302268B2F838
:10C6100040309BB223F008039BB2A2F8403094F85C
:10C62000E032012B0CD0204605F07EFC2268B2F8E7
:10C6300044309BB223F480539BB2A2F84430D1E73C
:10C64000002184F8E012204605F028FDEBE722687F
:10C65000B2F840309BB243F00803A2F840302268A1
:10C66000B2F844309BB223F400639BB2A2F844308A
:10C670002268B2F840309BB243F00403A2F8403085
:10C68000204605F041FCADE72268B2F844309BB289
:10C6900023F080039BB2A2F8443094F8E032FBB957
:10C6A0002268B2F840309BB243F00403A2F8403055
:10C6B0002268B2F840309BB243F00803A2F8403041
:10C6C000012184F8E0122368B3F85430C3F38D03DA
:10C6D00003F03C03C4F8E432204605F0DFFC81E7B8
:10C6E000204605F011FC7DE72268B2F844309BB289
:10C6F00023F400739BB2A2F84430204605F0EBFB14
:10C7000070E710B504468C4611F0800F2AD101F075
:10C71000070000EB8001C90001F5B47E04EB0E01B7
:10C7200000EB800004EBC0004FF0000E80F869E1E0
:10C730000CF0070C81F800C00A61CB704A780AB18E
:10C74000A1F80EC0022B19D094F8A832012B18D0F2
:10C75000012384F8A832206801F0F9FD002084F854
:10C76000A80210BD01F00700013000EB800104EBCE
:10C77000C1014FF0010E81F801E0D9E700230B71F0
:10C78000E2E70220EDE710B504460B4611F0800FFA
:10C790001FD101F0070202EB8201C90001F5B4715B
:10C7A000014402EB820200EBC202002082F8690120
:10C7B00003F007030B7094F8A832012B13D0012368
:10C7C00084F8A832206801F08DFF002084F8A802C8
:10C7D00010BD01F00702013202EB820100EBC10142
:10C7E00001204870E4E70220F2E710B501F00704E9
:10C7F00004EB8401C90001F5B471014404EB840C1D
:10C8000000EBCC0CCCF87C21CCF880310023CCF8A8
:10C8100084318CF869318CF8684124B9006802F0E1
:10C82000E9F8002010BD006802F0E4F8F9E701F033
:10C83000070101EB810100EBC100D0F884017047D2
:10C8400010B501F0070404F1010C0CEB8C0100EBB6
:10C85000C10104EB840E00EBCE0ECEF83C20CEF8E6
:10C86000403001228EF84C20CEF848300023CEF81C
:10C8700044304A700CEB8C0C00F83C4024B9006842
:10C8800002F0B8F8002010BD006802F0B3F8F9E734
:10C890000B4601F0070241688A422AD810B50446C7
:10C8A00013F0800F1DD103EB8301C90001F5B471B2
:10C8B000014403EB830300EBC303002083F8690109
:10C8C00001238B700A7094F8A832012B13D0012336
:10C8D00084F8A832206801F0F0FF002084F8A80254
:10C8E00010BD531C03EB830100EBC1010120487014
:10C8F000E6E7012070470220F2E70B4601F00F0146
:10C900004268914230D810B5044613F0800F21D10F
:10C9100003F0070202EB8201C90001F5B471014482
:10C9200002EB820200EBC202002082F869010022C1
:10C930008A7003F007030B7094F8A832012B15D00E
:10C94000012384F8A832206801F0DCFF002084F87D
:10C95000A80210BD03F00702013202EB820100EBD6
:10C96000C10101204870E2E7012070470220F0E792
:10C9700011F0800F0BD001F00701013101EB8101B3
:10C9800000EBC10052B90273C3800020704701EB75
:10C990008101C90001F5B4710844F3E70122027373
:10C9A00003811B0C4381F0E7034602680121C0F8B4
:10C9B000E812002083F8E002B2F854309BB20B4337
:10C9C000A2F85430B2F854309BB243F00203A2F8FC
:10C9D00054307047002836D13E4B1B6803F4C063C7
:10C9E000B3F5806F08D03B4AD2F8803023F48073CF
:10C9F000C2F8803000207047364AD2F8803023F4E5
:10CA00008073C2F88030136823F4C06343F400736A
:10CA10001360314B1B68322202FB03F32F4AA2FB47
:10CA200003239B0C013300E0013B2A4A526912F4B4
:10CA3000806F01D0002BF7D1264B5B6913F4806F18
:10CA400044D100207047B0F5007F08D0214A136818
:10CA500023F4C06343F480631360002070471D4BD0
:10CA60001B6803F4C063B3F5806F08D0194AD2F88D
:10CA7000803043F48073C2F8803000207047154A3C
:10CA8000D2F8803043F48073C2F88030136823F406
:10CA9000C06343F4007313600F4B1B68322202FB28
:10CAA00003F30E4AA2FB03239B0C013300E0013B7E
:10CAB000084A526912F4806F01D0002BF7D1054B60
:10CAC0005B6913F4806F03D1002070470320704727
:10CAD00003207047007000400400002083DE1B43E9
:10CAE000024A936843F480439360704700700040AB
:10CAF000124BDA6802F00302DB68C3F3031301335D
:10CB0000032A11D00E48B0FBF3F00C4BDB68C3F3E3
:10CB1000062303FB00F0094BDB68C3F341630133D9
:10CB20005B00B0FBF3F070470648B0FBF3F0034B3B
:10CB3000DB68C3F3062303FB00F0ECE700100240C0
:10CB40000024F40000127A00002800F0548270B52E
:10CB500082B00446036813F0010F37D0A44A9368EB
:10CB600003F00C03D26802F003020C2B23D0082B35
:10CB700023D06368B3F5803F4ED0B3F5A02F51D0DA
:10CB80009B4B1A6822F480321A601A6822F48022C1
:10CB90001A606368002B52D0FDF75AFB0546944B90
:10CBA0001B6813F4003F11D1FDF752FB401B6428B2
:10CBB000F5D9032028E2032AD9D18D4B1B6813F441
:10CBC000003F03D06368002B00F01782236813F046
:10CBD000020F5DD0864A936803F00C03D26802F01E
:10CBE00003020C2B3AD0042B3AD0E368002B75D00B
:10CBF0007F4A136843F480731360FDF729FB0546F1
:10CC00007B4B1B6813F4806F5FD1FDF721FB401B4A
:10CC10000228F5D90320F7E1754A136843F48033FD
:10CC20001360B6E703F18043A3F53C331A6842F47E
:10CC300080221A601A6842F480321A60A9E7FDF770
:10CC400007FB05466A4B1B6813F4003FBED0FDF797
:10CC5000FFFA401B6428F5D90320D5E1022AC2D18E
:10CC6000634B1B6813F4806F03D0E368002B00F064
:10CC7000C6815F4A536823F0FE43216943EA01639A
:10CC800053605C4B1868FDF735FA002840F0B98115
:10CC9000236813F0080F4CD063699BB3544AD2F851
:10CCA000943043F00103C2F89430FDF7D1FA054601
:10CCB0004F4BD3F8943013F0020F3AD1FDF7C8FA76
:10CCC000401B0228F4D903209EE1494A536823F00F
:10CCD000FE43216943EA01635360D9E7444A13687C
:10CCE00023F480731360FDF7B3FA0546404B1B68CD
:10CCF00013F4806FCCD0FDF7ABFA401B0228F5D9B6
:10CD0000032081E13A4AD2F8943023F00103C2F8BB
:10CD10009430FDF79DFA0546354BD3F8943013F067
:10CD2000020F06D0FDF794FA401B0228F4D9032025
:10CD30006AE1236813F0040F00F081802C4B9B6D97
:10CD400013F0805F36D12A4B9A6D42F080529A657B
:10CD50009B6D03F080530193019B0125264B1B68BB
:10CD600013F4807F28D0A368012B39D0052B45D040
:10CD70001F4BD3F8902022F00102C3F89020D3F883
:10CD8000902022F00402C3F89020A368002B43D027
:10CD9000FDF75EFA0646164BD3F8903013F0020FFB
:10CDA0004CD1FDF755FA801B41F288339842F2D9F5
:10CDB000032029E10025D1E70F4A136843F480736B
:10CDC0001360FDF745FA06460B4B1B6813F4807F92
:10CDD000C9D1FDF73DFA801B0228F5D9032013E1E4
:10CDE000034AD2F8903043F00103C2F89030CCE708
:10CDF000001002400C000020007000408A4BD3F865
:10CE0000902042F00402C3F89020D3F8902042F022
:10CE10000102C3F89020B8E7FDF71AFA0646824BE4
:10CE2000D3F8903013F0020F08D0FDF711FA801BF1
:10CE300041F288339842F2D90320E5E0E5B923684E
:10CE400013F0200F35D0A369E3B1774AD2F89830B8
:10CE500043F00103C2F89830FDF7FAF90546724B2A
:10CE6000D3F8983013F0020F23D1FDF7F1F9401BEE
:10CE70000228F4D90320C7E06B4A936D23F0805356
:10CE80009365DCE7684AD2F8983023F00103C2F8D2
:10CE90009830FDF7DDF90546634BD3F8983013F071
:10CEA000020F06D0FDF7D4F9401B0228F4D9032065
:10CEB000AAE0E369002B00F0A6805B4A926802F0CA
:10CEC0000C020C2A69D0022B1DD0574B1A6822F095
:10CED00080721A60DA6822F00302DA60DA6822F0FF
:10CEE000887222F48032DA60FDF7B2F904464E4BC4
:10CEF0001B6813F0007F4ED0FDF7AAF9001B022833
:10CF0000F5D9032080E0484A136823F0807313604A
:10CF1000FDF79EF90546444B1B6813F0007F06D0D1
:10CF2000FDF796F9401B0228F5D903206CE03E4A34
:10CF3000D3683E491940236A606A013843EA001306
:10CF4000A06A43EA0023206B4008013843EA4053BB
:10CF5000606B4008013843EA4063E06A43EAC0631B
:10CF60001943D160136843F080731360D36843F0B2
:10CF70008073D360FDF76CF904462B4B1B6813F0EC
:10CF8000007F06D1FDF764F9001B0228F5D90320C4
:10CF90003AE0002038E0002036E0012B36D0224B6A
:10CFA000DB6803F00301226A914231D103F0F00201
:10CFB000616A0139B2EB011F2CD103F4FE42A16A70
:10CFC000B2EB012F28D103F07842E16AB2EBC16FD6
:10CFD00024D103F4C001226B5208013AB1EB425F45
:10CFE0001ED103F0C063626B5208013AB3EB426F8B
:10CFF00018D1002008E001207047012004E0012042
:10D0000002E0012000E0002002B070BD0120FBE73B
:10D010000120F9E70120F7E70120F5E70120F3E718
:10D020000120F1E70120EFE7001002400C809F0192
:10D030001E4B9B6803F00C03042B33D01B4B9B68E7
:10D0400003F00C03082B2FD0184B9B6803F00C0344
:10D050000C2B01D000207047144BDA6802F0030259
:10D06000DB68C3F303130133032A11D01048B0FB6C
:10D07000F3F00E4BDB68C3F3062303FB00F00B4B0E
:10D08000DB68C3F3416301335B00B0FBF3F070472F
:10D090000848B0FBF3F0054BDB68C3F3062303FB42
:10D0A00000F0ECE702487047024870470010024069
:10D0B0000024F40000127A00002800F0E680F8B5A1
:10D0C0000C460546744B1B6803F00F038B420BD2D2
:10D0D000714A136823F00F030B431360136803F0C6
:10D0E0000F038B4240F0D3802E6816F001065FD00C
:10D0F0006B68032B2FD0022B4DD0684B1B6813F4A9
:10D10000806F00F0C680FFF793FF654B98424DD9C2
:10D11000624A936823F0F00343F080039360802613
:10D120005E4A936823F0030369680B439360FDF73D
:10D130008FF80746594B9B6803F00C036A68B3EB02
:10D14000820F35D0FDF784F8C01B41F28833984236
:10D15000F0D9032078E0514B1B6813F0007F01D118
:10D16000012071E0FFF7C4FC4D4B98421AD94B4B9C
:10D170009B6813F0F00F05D02E6816F00206CFD092
:10D18000AB688BB9454A936823F0F00343F0800302
:10D1900093608026C4E7414B1B6813F4003FB2D173
:10D1A000012051E00026BBE70026B9E70026B7E7DB
:10D1B0002B6813F0020F48D013F0040F04D0374A45
:10D1C000936843F4E06393602B6813F0080F06D074
:10D1D000324A936823F47C5343F4E06393602F4A0C
:10D1E000936823F0F003A9680B4393602A4B1B68F4
:10D1F00003F00F03A34230D82B6813F0040F06D0BE
:10D20000264A936823F4E063E9680B4393602B6834
:10D2100013F0080F07D0214A936823F4605329695B
:10D2200043EAC1039360FFF703FF1C4B9B68C3F302
:10D2300003131C4AD35C03F01F03D8401A4B186039
:10D240001A4B1868FCF756FFF8BD802ECED1134A52
:10D25000936823F0F0039360C8E70F4A136823F044
:10D260000F0323431360FCF7F3FF06460A4B1B68CA
:10D2700003F00F03A342BFD0FCF7EAFF801B41F28B
:10D2800088339842F2D90320DEE70120704701205D
:10D29000DAE70120D8E700BF00200240001002407A
:10D2A00000B4C4045C430108040000200C0000200A
:10D2B000014B1868704700BF0400002008B5FFF755
:10D2C000F7FF054B9B68C3F30223044AD35C03F0CA
:10D2D0001F03D84008BD00BF00100240544301089E
:10D2E0000F2303600B4B9A6802F0030242609A68B6
:10D2F00002F0F00282609A6802F4E062C2609B6809
:10D30000DB0803F4E0630361034B1B6803F00F03C6
:10D310000B6070470010024000200240F0B583B05F
:10D320000446036813F4002F69D0AE4B9B6D13F0D5
:10D33000805F1ED1AB4B9A6D42F080529A659B6D17
:10D3400003F080530193019B0126A74A136843F41D
:10D3500080731360FCF77CFF0546A34B1B6813F436
:10D36000807F08D1FCF774FF401B0228F5D9032504
:10D3700002E00026E9E7002545BB9A4BD3F8903040
:10D3800013F4407315D0226C9A4212D0954AD2F809
:10D39000903023F44073D2F8901041F48031C2F8F9
:10D3A0009010D2F8901021F48031C2F89010C2F899
:10D3B000903013F0010F10D145B98A4AD2F890305D
:10D3C00023F44073216C0B43C2F89030C6B1854AF8
:10D3D000936D23F08053936512E0FCF739FF074605
:10D3E000804BD3F8903013F0020FE5D1FCF730FFFB
:10D3F000C01B41F288339842F2D90325DCE70025AF
:10D40000236813F0010F08D0764AD2F8883023F051
:10D41000030361680B43C2F88830236813F0020FDE
:10D4200008D0704AD2F8883023F00C03A1680B436F
:10D43000C2F88830236813F0040F08D0694AD2F884
:10D44000883023F03003E1680B43C2F8883023684A
:10D4500013F0080F08D0634AD2F8883023F0C003D5
:10D4600021690B43C2F88830236813F0200F08D0DD
:10D470005C4AD2F8883023F4406361690B43C2F8F8
:10D480008830236813F0400F08D0564AD2F888300D
:10D4900023F44053A1690B43C2F88830236813F08A
:10D4A000800F08D04F4AD2F8883023F44043E16916
:10D4B0000B43C2F88830236813F4807F08D0494AB0
:10D4C000D2F8883023F44033216A0B43C2F8883005
:10D4D000236813F4007F08D0424AD2F8883023F43E
:10D4E0004023616A0B43C2F88830236813F4806FCD
:10D4F0000CD03C4AD2F8883023F44013A16A0B4385
:10D50000C2F88830A36AB3F5801F57D0236813F49C
:10D51000006F0CD0334AD2F8883023F44003E16A1C
:10D520000B43C2F88830E36AB3F5800F4BD0236811
:10D5300013F4805F0CD02B4AD2F8883023F040736C
:10D54000216B0B43C2F88830236BB3F1807F3FD04F
:10D55000236813F4005F0CD0224AD2F8883023F0FD
:10D560004063616B0B43C2F88830636BB3F1006FAB
:10D5700033D0236813F4804F0CD01A4AD2F8883085
:10D5800023F04063A16B0B43C2F88830A36BB3F167
:10D59000006F2BD0236813F4004F0CD0114AD2F83F
:10D5A000883023F04053E16B0B43C2F88830E36BC3
:10D5B000B3F1805F1FD0284603B0F0BDD36843F4B9
:10D5C0008013D360A2E7D36843F48013D360AEE73F
:10D5D000D36843F48013D360BAE7D36843F480136D
:10D5E000D360C6E70010024000700040D36843F4E7
:10D5F0008013D360CEE7D36843F48033D360DAE797
:10D6000030B4036A23F001030362026A4468836949
:10D6100023F4803323F073030D681D4322F00202CC
:10D620008B6813431C4A90420FD002F5006290426F
:10D630000BD002F54062904207D002F58062904222
:10D6400003D002F58062904205D123F00803CA6836
:10D650001A4322F00403104A90420FD002F50062F0
:10D6600090420BD002F54062904207D002F58062F2
:10D67000904203D002F58062904205D124F44074B8
:10D680004A6922438C691443446085614A68426355
:10D69000036230BC704700BF002C014030B4036A05
:10D6A00023F480730362036A4468C26922F48032FF
:10D6B00022F073020D68154323F400738A6843EA6D
:10D6C0000223184A904203D002F50062904206D12C
:10D6D00023F40063CA6843EA022323F48063114AF7
:10D6E00090420FD002F5006290420BD002F54062EA
:10D6F000904207D002F58062904203D002F580622A
:10D70000904207D124F440524C6942EA04128C69D9
:10D7100042EA04144460C5614A68C263036230BCD3
:10D72000704700BF002C014030B4036A23F48053DB
:10D730000362036A4468C26922F0807222F4E642FE
:10D740000D6842EA052223F400538D6843EA05334D
:10D75000174DA84203D005F50065A84206D123F471
:10D760000043CD6843EA053323F48043104DA842BB
:10D770000FD005F50065A8420BD005F54065A8421D
:10D7800007D005F58065A84203D005F58065A8425D
:10D7900007D124F4404C4C694CEA841C8C694CEA57
:10D7A00084144460C2614A680264036230BC7047FA
:10D7B000002C014030B4036A23F480330362036A0F
:10D7C0004468026D22F4803222F070020D68154325
:10D7D00023F400338A6843EA02430F4A90420FD091
:10D7E00002F5006290420BD002F54062904207D0F1
:10D7F00002F58062904203D002F58062904204D12B
:10D8000024F480344A6944EA0224446005654A6885
:10D810008264036230BC7047002C014030B4036A5C
:10D8200023F480130362036A4468026D22F080725D
:10D8300022F4E0420D6842EA052223F400138D68C9
:10D8400043EA05530F4DA8420FD005F50065A842E5
:10D850000BD005F54065A84207D005F58065A842C4
:10D8600003D005F58065A84204D124F480244D69D5
:10D8700044EA8524446002654A68C264036230BC9D
:10D88000704700BF002C014010B4036A046A24F002
:10D8900001040462846924F0F00C4CEA021223F0C3
:10D8A0000A030B43826103625DF8044B704710B4B6
:10D8B000036A23F0100303628469036A24F4704C42
:10D8C0004CEA023223F0A00343EA011382610362AF
:10D8D0005DF8044B7047836823F4401323F0700312
:10D8E0000B4343F0070383607047000090F83D301E
:10D8F000DBB2012B32D1022380F83D300268D368BD
:10D9000043F00103D3600368174A934218D0B3F180
:10D91000804F15D0A2F59432934211D002F5806267
:10D9200093420DD002F59632934209D002F540623F
:10D93000934205D01A6842F001021A600020704735
:10D9400099680A4A0A40062A0AD0B2F5803F09D0EF
:10D950001A6842F001021A600020704701207047E7
:10D960000020704700207047002C01400700010094
:10D97000704770477047704710B5044603681A69CE
:10D9800012F0020F12D0DA6812F0020F0ED06FF010
:10D9900002021A610123037703689B6913F0030FE6
:10D9A00000F09F80FFF7E5FF0023237723681A69C3
:10D9B00012F0040F13D0DA6812F0040F0FD06FF0DA
:10D9C00004021A610223237723689B6913F4407FC2
:10D9D00000F08D802046FFF7CCFF002323772368DB
:10D9E0001A6912F0080F12D0DA6812F0080F0ED080
:10D9F0006FF008021A61042323772368DB6913F0B0
:10DA0000030F7BD02046FFF7B4FF00232377236862
:10DA10001A6912F0100F12D0DA6812F0100F0ED03F
:10DA20006FF010021A61082323772368DB6913F46F
:10DA3000407F6AD02046FFF79CFF002323772368AE
:10DA40001A6912F0010F03D0DA6812F0010F63D1E6
:10DA500023681A6912F0800F03D0DA6812F0800F81
:10DA600061D123681A6912F4807F03D0DA6812F05A
:10DA7000800F5FD123681A6912F0400F03D0DA6873
:10DA800012F0400F5DD123681A6912F0200F03D005
:10DA9000DA6812F0200F5BD123681A6912F4801F34
:10DAA00003D0DA6812F4801F59D123681A6912F47E
:10DAB000001F03D0DA6812F4001F57D123681A69D7
:10DAC00012F4800F03D0DA6812F4800F55D1236866
:10DAD0001A6912F4000F03D0DA6812F4000F53D160
